:100000000C9472000C9493000C9493000C94930045
:100010000C9493000C9493000C9493000C94930014
:100020000C9493000C9493000C9493000C94930004
:100030000C9493000C9493000C9493000C949300F4
:100040000C9493000C9493000C9493000C949300E4
:100050000C9493000C9493000C9493000C949300D4
:100060000C9493000C9493000C9493000C949300C4
:100070000C9493000C9493000C9493000C949300B4
:100080000C9493000C9493000C9493000C949300A4
:100090000C9493000C9493000C9493000C94930094
:1000A0000C9493000C9493000C9493000C94930084
:1000B0000C9493000C9493000C9493000C94930074
:1000C0000C9493000C9493000C9493000C94930064
:1000D0000C9493000C9493000C948E010C94930058
:1000E0000C94930011241FBECFEFD1E2DEBFCDBF31
:1000F00000E00CBF12E0A0E0B2E0E6E5F8E000E0CE
:100100000BBF02C007900D92AA30B107D9F722E0C9
:10011000AAE0B2E001C01D92A433B207E1F70E9449
:1001200078030C9429040C940000E4E0F1E0808151
:1001300083608083E5E0F1E08081836080838FEFDE
:1001400080930101809302018093070180BB089591
:10015000E0EAF0E08081896A8083E1EAF0E0808172
:100160008B6080830895EF92FF920F931F93E616A2
:10017000F7060807190744F0621773078407950705
:100180002CF4CA01B90102C0C801B7011F910F9137
:10019000FF90EF900895EF92FF920F931F93E61652
:1001A000F7060807190754F0DC01CB018217930703
:1001B000A407B5072CF4DA01C90102C0D801C701B0
:1001C0008B3F2FEF9207A207B20794F4209108010A
:1001D0002E7F2093080120910801226020930801BE
:1001E000B095A095909581959F4FAF4FBF4F1DC083
:1001F00086309105A105B1055CF0209108012D7FA5
:1002000020930801209108012160209308010DC06E
:10021000809108018E7F80930801809108018D7F75
:100220008093080180E090E0DC019093A900809326
:10023000A8001F910F91FF90EF900895EF92FF9209
:100240000F931F93E616F7060807190754F0DC0111
:10025000CB0182179307A407B5072CF4DA01C90173
:1002600002C0D801C7018B3F2FEF9207A207B20748
:1002700094F4209108012B7F20930801209108011C
:10028000286020930801B095A095909581959F4F87
:10029000AF4FBF4F1DC086309105A105B1055CF081
:1002A00020910801277F20930801209108012460F4
:1002B000209308010DC0809108018B7F8093080175
:1002C00080910801877F8093080180E090E0DC0145
:1002D0009093AB008093AA001F910F91FF90EF9035
:1002E000089580911F0297E3980F963358F48093F6
:1002F0001E02875E803188F4E82FF0E0E05EFD4F5B
:1003000081E00AC0893C48F4E0911E02E95CE031DA
:1003100020F4F0E0E05DFD4F808308951F920F927E
:100320000FB60F9211240BB60F922F933F934F935A
:100330005F936F937F938F939F93AF93BF93EF934D
:10034000FF938091360180931F020E947101FF91FB
:10035000EF91BF91AF919F918F917F916F915F913D
:100360004F913F912F910F900BBE0F900FBE0F90AA
:100370001F901895109235018FE58093340188E91C
:100380008093310186E08093320108954F925F920D
:100390006F927F92AF92BF92CF92DF92EF92FF92D5
:1003A0000F931F93CF93DF93CDB7DEB729013A01A7
:1003B000621B730B840B950B2A893B894C895D89E1
:1003C0002A193B094C095D092A8B3B8B4C8B5D8BB1
:1003D0009B01AC016A897B898C899D890E94BE033F
:1003E000E418F50806091709A80197010E94CE0331
:1003F0002A0D3B1D4C1D5D1DCA01B901DF91CF9136
:100400001F910F91FF90EF90DF90CF90BF90AF9032
:100410007F906F905F904F9008959091200291305F
:1004200039F480910B02892780930B0210922002ED
:1004300090912102913039F480910B0289278093A9
:100440000B021092210290912202913039F4809196
:100450000B02892780930B021092220290912302B3
:10046000913039F480910B02892780930B0210920E
:10047000230290912402913039F480910B02892754
:1004800080930B021092240290912502913039F44E
:1004900080910B02892780930B0210922502909184
:1004A0002602913039F480910B02892780930B0248
:1004B0001092260290912702913039F480910B021C
:1004C000892780930B021092270290912802913085
:1004D00039F480910B02892780930B021092280235
:1004E00080912902813011F41092290280912A0210
:1004F000813059F480910202909103020A96909300
:1005000003028093020210922A0280912B02813012
:1005100059F480910002909101020A969093010291
:100520008093000210922B0280912C02813059F4AA
:1005300080910202909103020A97909303028093A4
:10054000020210922C0280912D02813059F4809188
:100550000002909101020A97909301028093000299
:1005600010922D0290912E02913039F480910A025E
:10057000892780930A0210922E0280912F028130E7
:1005800011F410922F020895EF92FF920F931F9390
:1005900080910B02882309F490C09091040280910D
:1005A0000502992309F444C08823C1F0E12CF12C01
:1005B0008701EA9421E03FEF4FEF5FEF60E070E0EA
:1005C000CB010E94CB0021E03FEF4FEF5FEF60E0F7
:1005D00070E0CB010E941E0110920502E12CF12C6B
:1005E0008701EA9421E03FEF4FEF5FEF68E87FEF8C
:1005F0008FEF9FEF0E94CB0021E03FEF4FEF5FEFC7
:1006000068E770E080E090E00E941E0180910602A1
:10061000909107021816190644F480910C029091EB
:100620000D02883E93400CF45EC0109204025BC041
:10063000811119C0E12CF12C8701EA9421E03FEFF0
:100640004FEF5FEF60E070E0CB010E94CB0021E054
:100650003FEF4FEF5FEF60E070E0CB010E941E01C3
:1006600081E080930502E12CF12C8701EA9421E0DE
:100670003FEF4FEF5FEF68E770E080E090E00E94AF
:10068000CB0021E03FEF4FEF5FEF68E87FEF8FEFA8
:100690009FEF0E941E018091060290910702883E02
:1006A00093403CF480910C0290910D0218161906AB
:1006B000D4F081E08093040216C0E12CF12C870174
:1006C000EA9421E03FEF4FEF5FEF60E070E0CB0195
:1006D0000E94CB0021E03FEF4FEF5FEF60E070E062
:1006E000CB010E941E011F910F91FF90EF90089582
:1006F0000E9495000E94A8000E94BA0178948091FF
:100700001F0281BB0E940D0280910B028823F9F029
:100710006091020270910302882777FD8095982FDF
:10072000E12CF12C8701EA9421E03FEF4FEF5FEFDE
:100730000E94CB006091000270910102882777FD32
:100740008095982F21E03FEF4FEF5FEF14C0E12C31
:10075000F12C8701EA9421E03FEF4FEF5FEF60E07B
:1007600070E0CB010E94CB0021E03FEF4FEF5FEF45
:1007700060E070E0CB010E941E01C1CFDB018F93CE
:100780009F930E94ED03BF91AF91A29F800D911D99
:10079000A39F900DB29F900D11240895052E97FBF5
:1007A0001EF400940E94E50357FD07D00E94F80351
:1007B00007FC03D04EF40C94E5035095409530951A
:1007C00021953F4F4F4F5F4F0895909580957095BD
:1007D00061957F4F8F4F9F4F08950E941A04A59FE8
:1007E000900DB49F900DA49F800D911D112408952C
:1007F000A1E21A2EAA1BBB1BFD010DC0AA1FBB1F25
:10080000EE1FFF1FA217B307E407F50720F0A21B96
:10081000B30BE40BF50B661F771F881F991F1A9403
:1008200069F760957095809590959B01AC01BD012D
:10083000CF010895A29FB001B39FC001A39F700D87
:10084000811D1124911DB29F700D811D1124911DD8
:060850000895F894FFCFAB
:0A085600960096000101E803C8FFB8
:040000050080020A6B
:00000001FF
