:100000000C9472000C9486000C9486000C9486006C
:100010000C9486000C9486000C9486000C94860048
:100020000C9486000C9486000C9486000C94860038
:100030000C9486000C9486000C9486000C94860028
:100040000C9486000C9486000C9486000C94860018
:100050000C9486000C9486000C9486000C94860008
:100060000C9486000C9486000C9486000C948600F8
:100070000C9486000C9486000C9486000C948600E8
:100080000C9486000C9486000C9486000C948600D8
:100090000C9486000C9486000C9486000C948600C8
:1000A0000C9486000C9486000C9486000C948600B8
:1000B0000C9486000C9486000C9486000C948600A8
:1000C0000C9486000C9486000C9486000C94E0003E
:1000D0000C9486000C9486000C9486000C94860088
:1000E0000C94860011241FBECFEFD1E2DEBFCDBF3E
:1000F00000E00CBF22E0A0E0B2E001C01D92A132FE
:10010000B207E1F70E940C010C9411010C9400005D
:10011000E1E0F1E0808184608083E2E0F1E08081D1
:100120008460808308951092D5008FE58093D40079
:1001300088E98093D10086E08093D2000895809171
:100140000D02813011F410920D0280910E02813067
:1001500011F410920E0280910F02813011F410926E
:100160000F0280911002813011F4109210029091D0
:100170001102913039F480910002892780930002A6
:10018000109211020895E091200287E38E0F8633CA
:1001900058F4E0931702E75EE03188F4F0E0ED5F99
:1001A000FD4F81E080830895E93C48F4A091170257
:1001B000A95CA03120F4B0E0AD5EBD4FEC93089592
:1001C0001F920F920FB60F9211240BB60F922F931E
:1001D0003F934F935F936F937F938F939F93AF93CF
:1001E000BF93EF93FF938091D600809320020E94EB
:1001F000C300FF91EF91BF91AF919F918F917F913C
:100200006F915F914F913F912F910F900BBE0F9087
:100210000FBE0F901F9018950E9488000E949300B7
:06022000FFCFF894FFCFB0
:040000050080020075
:00000001FF
