:100000000C9472000C9486000C9486000C9486006C
:100010000C9486000C9486000C9486000C94860048
:100020000C9486000C9486000C9486000C94860038
:100030000C9486000C9486000C9486000C94860028
:100040000C9486000C9486000C9486000C94860018
:100050000C9486000C9486000C9486000C94860008
:100060000C9486000C9486000C9486000C948600F8
:100070000C9486000C9486000C9486000C948600E8
:100080000C9486000C9486000C9486000C948600D8
:100090000C9486000C9486000C9486000C948600C8
:1000A0000C9486000C9486000C9486000C948600B8
:1000B0000C9486000C9486000C9486000C948600A8
:1000C0000C9486000C9486000C9486000C94860098
:1000D0000C9486000C9486000C9411020C948600FB
:1000E0000C94860011241FBECFEFD1E2DEBFCDBF3E
:1000F00000E00CBF22E0A0E0B2E001C01D92AD32F2
:10010000B207E1F70E9493020C94A0040C94000043
:1001100087B1876F87B988B1807888B9089586E6F6
:100120009EE00197F1F700004098419880E388B97C
:10013000429AEFEFF7E43197F1F700C000004298E0
:10014000E6E6FEE03197F1F700004098419888B963
:10015000429AEFEFF7E43197F1F700C000004298C0
:10016000E6E6FEE03197F1F700004098419888B943
:10017000429A8FEF97E40197F1F700C00000429890
:10018000E6E6FEE03197F1F700004098419880E202
:1001900088B9429A8FEF97E40197F1F700C0000009
:1001A0004298089598B19F7098B928B1982F907F80
:1001B000922B98B940984198429AEFEFF7E4319723
:1001C000F1F700C00000429898B19F7098B998B1BB
:1001D0008295807F892B88B940984198429A8FEF09
:1001E00097E40197F1F700C00000429808950E943B
:1001F0008F0086E69EE00197F1F7000088E20E94FA
:10020000D20081E00E94D20086E00E94D2008EE0FF
:100210000E94D20080E80C94D20098B19F7098B9E7
:1002200028B1982F907F922B98B9409A4198429A82
:10023000EFEFF7E43197F1F700C0000042988295A4
:10024000807F98B19F7098B998B1892B88B9409AEE
:100250004198429A8FEF97E40197F1F700C00000B0
:100260004298089580E80C94D200CF93DF93EC017C
:100270008991811103C0DF91CF9108950E940D01F2
:10028000F7CF982F862F923059F024F4815891306F
:1002900041F00895933039F08D52943011F0089563
:1002A00081540C94D2008D56FCCF0F931F93CF93A3
:1002B000DF938A01E901882311F0611167C00E9470
:1002C0003201C530D10509F064C0C80160E177E2B0
:1002D0000E94F002CB01C096909304028093030227
:1002E0000E940D01C80168EE73E00E94F002CB018C
:1002F00070931602609315026AE070E00E94F002AB
:10030000C09690932B0280932A020E940D01C8018F
:1003100064E670E00E94F002CB01709316026093D5
:1003200015026AE070E00E94F002C09690932302EA
:10033000809322020E940D012AE030E0C801B90139
:100340000E94F002CB017093160260931502B9016E
:100350000E94F002C09690931D0280931C020E949E
:100360000D01C8016AE070E00E94F002C09690930F
:100370002902809328020E940D012697CCF085E483
:10038000DF91CF911F910F910C940D010E944101BB
:1003900098CFC430D10509F4A5CFC330D10509F4F5
:1003A000B6CFC230D10541F2C130D10531F7D9CF36
:1003B000DF91CF911F910F910895E4E0F1E08081EA
:1003C00083608083E5E0F1E080818360808308952D
:1003D000109235018FE58093340188E980933101D3
:1003E00086E0809332010895E0912C0287E38E0F1E
:1003F000863358F4E0931B02E75EE03188F4F0E0C6
:10040000EB5FFD4F81E080830895E93C48F4A091C3
:100410001B02A95CA03120F4B0E0A95EBD4FEC93B3
:1004200008951F920F920FB60F9211240BB60F92E0
:100430002F933F934F935F936F937F938F939F93EC
:10044000AF93BF93EF93FF938091360180932C027B
:100450000E94F401FF91EF91BF91AF919F918F9115
:100460007F916F915F914F913F912F910F900BBEB4
:100470000F900FBE0F901F9018951092900081E082
:10048000809391001092950010929400089590919D
:100490000F02913079F48091020289278093020241
:1004A000109290001092910010929500109294007A
:1004B00010920F0290911002913049F48091010244
:1004C0008927809301020E943D02109210029091B0
:1004D0001102913079F480910202892780930202FF
:1004E000109290001092910010929500109294003A
:1004F0001092110290911202913049F48091010200
:100500008927809301020E943D021092120290916D
:100510001302913039F48091000289278093000200
:100520001092130208950E9488000E94F7000E9412
:100530003D020E94DD010E94E8011AB88FEF81B9E7
:1005400060911E0270911F02809120029091210201
:100550000E94760321E030E0AB0162E081E00E947E
:100560005501C2E0C2B92FEF8FEF99E521508040CD
:100570009040E1F700C0000012B80E943D02489B85
:10058000FECF609194007091950090E080E00E9411
:10059000A50360931E0270931F0280932002909324
:1005A000210220E030E041E65BE40E94040320E009
:1005B00034E244E759E40E9433040E94760324E0C5
:1005C00030E0AB0162E081E00E9455012FEF8FEF38
:1005D00099E5215080409040E1F700C00000C2CF73
:1005E000AA1BBB1B51E107C0AA1FBB1FA617B70759
:1005F00010F0A61BB70B881F991F5A95A9F7809575
:100600009095BC01CD0108950E9418030C94F90344
:100610000E94F20358F00E94EB0340F029F45F3F80
:1006200029F00C94E20351110C942D040C94E8036E
:100630000E940A0468F39923B1F3552391F3951BA3
:10064000550BBB27AA2762177307840738F09F5FF3
:100650005F4F220F331F441FAA1FA9F335D00E2E60
:100660003AF0E0E832D091505040E695001CCAF7CD
:100670002BD0FE2F29D0660F771F881FBB1F261790
:1006800037074807AB07B0E809F0BB0B802DBF0167
:10069000FF2793585F4F3AF09E3F510578F00C9436
:1006A000E2030C942D045F3FE4F3983ED4F3869567
:1006B00077956795B795F7959F5FC9F7880F911D57
:1006C0009695879597F90895E1E0660F771F881F43
:1006D000BB1F621773078407BA0720F0621B730BF6
:1006E000840BBA0BEE1F88F7E09508950E94120460
:1006F00088F09F5798F0B92F9927B751B0F0E1F0E3
:10070000660F771F881F991F1AF0BA95C9F714C092
:10071000B13091F00E942C04B1E008950C942C04A7
:10072000672F782F8827B85F39F0B93FCCF38695CB
:1007300077956795B395D9F73EF490958095709528
:1007400061957F4F8F4F9F4F0895E89409C097FBA5
:100750003EF490958095709561957F4F8F4F9F4F98
:100760009923A9F0F92F96E9BB279395F6958795DC
:1007700077956795B795F111F8CFFAF4BB0F11F49F
:1007800060FF1BC06F5F7F4F8F4F9F4F16C0882346
:1007900011F096E911C0772321F09EE8872F762F7C
:1007A00005C0662371F096E8862F70E060E02AF0BD
:1007B0009A95660F771F881FDAF7880F96958795A9
:1007C00097F9089597F99F6780E870E060E00895D1
:1007D0009FEF80EC089500240A9416161706180659
:1007E0000906089500240A94121613061406050635
:1007F0000895092E0394000C11F4882352F0BB0FC6
:1008000040F4BF2B11F460FF04C06F5F7F4F8F4F28
:100810009F4F089557FD9058440F551F59F05F3F63
:1008200071F04795880F97FB991F61F09F3F79F012
:1008300087950895121613061406551FF2CF469594
:10084000F1DF08C0161617061806991FF1CF869516
:100850007105610508940895E894BB2766277727FA
:10086000CB0197F908950E9446040C94F9030E9465
:10087000EB0338F00E94F20320F0952311F00C9462
:10088000E2030C94E80311240C942D040E940A0442
:1008900070F3959FC1F3950F50E0551F629FF001D3
:1008A000729FBB27F00DB11D639FAA27F00DB11DEC
:1008B000AA1F649F6627B00DA11D661F829F222775
:1008C000B00DA11D621F739FB00DA11D621F839FFC
:1008D000A00D611D221F749F3327A00D611D231FD2
:1008E000849F600D211D822F762F6A2F11249F5720
:1008F00050409AF0F1F088234AF0EE0FFF1FBB1F23
:10090000661F771F881F91505040A9F79E3F5105E1
:1009100080F00C94E2030C942D045F3FE4F3983EC6
:10092000D4F3869577956795B795F795E7959F5F8B
:10093000C1F7FE2B880F911D9695879597F908951D
:04094000F894FFCF59
:040000050080020075
:00000001FF
