:100000000C9472000C9486000C9486000C9486006C
:100010000C9486000C9486000C9486000C94860048
:100020000C9486000C9486000C9486000C94860038
:100030000C9486000C9486000C9486000C94860028
:100040000C9486000C9486000C9486000C94860018
:100050000C9486000C9486000C9486000C94860008
:100060000C9486000C9486000C9486000C948600F8
:100070000C9486000C9486000C9486000C948600E8
:100080000C9486000C9486000C9486000C948600D8
:100090000C9486000C9486000C9486000C948600C8
:1000A0000C9486000C9486000C9486000C948600B8
:1000B0000C9486000C9486000C9486000C948600A8
:1000C0000C9486000C9486000C9486000C94860098
:1000D0000C9486000C9486000C9486000C94860088
:1000E0000C94860011241FBECFEFD1E2DEBFCDBF3E
:1000F00000E00CBF22E0A0E0B2E001C01D92AA31F6
:10010000B207E1F70E9442020C942E030C94000007
:1001100087B1806F87B981B1886A81B988B18F70E2
:1001200088B982B1877582B908958FE99FE00197F8
:10013000F1F700C000001398159880E388B9179A6A
:10014000EFE1FEE43197F1F700C000001798EFE906
:10015000FFE03197F1F700C000001398159888B9B7
:10016000179AEFE1FEE43197F1F700C0000017980D
:10017000EFE9FFE03197F1F700C000001398159800
:1001800088B9179A8FE19EE40197F1F700C000004B
:100190001798EFE9FFE03197F1F700C000001398DE
:1001A000159880E288B9179A8FE19EE40197F1F7DC
:1001B00000C000001798089598B19F7098B928B1B1
:1001C000982F907F922B98B913981598179AEFE172
:1001D000FEE43197F1F700C00000179898B19F70C6
:1001E00098B998B18295807F892B88B91398159812
:1001F000179A8FE19EE40197F1F700C0000017986D
:1002000008950E9495008FE99FE00197F1F700C0E3
:10021000000088E20E94DC0081E00E94DC0086E0B1
:100220000E94DC008EE00E94DC0080E80C94DC0080
:1002300098B19F7098B928B1982F907F922B98B958
:10024000139A1598179AEFE1FEE43197F1F700C081
:100250000000179898B19F7098B998B18295807FE7
:10026000892B88B9139A1598179A8FE19EE4019704
:10027000F1F700C000001798089580E80C94DC00A6
:10028000CF93DF93EC018991811103C0DF91CF916E
:1002900008950E941801F7CF982F862F923059F0B9
:1002A00020F48158913041F00895933039F08D5207
:1002B000943011F0089581540C94DC008D56FCCFDD
:1002C0000F931F93CF93DF938A01E901882311F0E5
:1002D000611167C00E943D01C530D10509F064C0BD
:1002E000C80160E177E20E941A03CB01C0969093A7
:1002F0000202809301020E941801C80168EE73E0B7
:100300000E941A03CB0170930802609307026AE00F
:1003100070E00E941A03C09690931902809318020D
:100320000E941801C80164E670E00E941A03CB0124
:1003300070930802609307026AE070E00E941A035B
:10034000C09690931502809314020E9418012AE02F
:1003500030E0C801B9010E941A03CB017093080272
:1003600060930702B9010E941A03C09690930E028F
:1003700080930D020E941801C8016AE070E00E949B
:100380001A03C09690931702809316020E941801D8
:100390002697CCF085E4DF91CF911F910F910C94BB
:1003A00018010E944C0198CFC430D10509F4A5CFA3
:1003B000C330D10509F4B6CFC230D10541F2C13006
:1003C000D10531F7D9CFDF91CF911F910F910895CA
:1003D00010922001E1E2F1E080818160808310923F
:1003E00025011092240108951092200110922101FC
:1003F0001092250110922401089584B1806F84B970
:1004000050982D9A2C9808952E982F9A489902C0AA
:10041000489BFECF4899FECF0E94E801489BFECF43
:1004200080912401909125019093130280931202F0
:100430000E94F401409112025091130225E030E035
:1004400061E081E00E9460012FEF41EE84E02150E5
:1004500040408040E1F700C000008091120290917E
:1004600013029C01285C32432938334138F080550F
:1004700096448938934120F080E0089581E0089502
:1004800082E008950E94E8010E94FD010E94880018
:100490000E9401018FEF8093070180930801C3E060
:1004A0000E94E8012E982F98489902C0489BFECFE1
:1004B0004899FECF0E94E801489BFECF409124015D
:1004C0005091250150930A024093090225E030E043
:1004D00061E081E00E9460012FEF41EE84E0215055
:1004E00040408040E1F700C000000E94F4010E94FB
:1004F000E80185B1806C85B9489902C0489BFECF60
:100500004899FECF0E94E801489BFECF409124010C
:100510005091250150930C0240930B0225E030E0EE
:1005200068E081E00E9460019FEF21EE44E091507D
:1005300020404040E1F700C000000E94F4010E940A
:10054000E8010E94E8012F982E9A489902C0489B22
:10055000FECF4899FECF0E94E801489BFECF409114
:10056000240150912501509306024093050225E095
:1005700030E068E082E00E9460018FEF91EE24E0BD
:10058000815090402040E1F700C000000E94F4013B
:100590002091090230910A02285C324380910B02BB
:1005A00090910C0229383341A8F4883092451CF010
:1005B00081E08093000280910002813009F58091F2
:1005C000080188638093080180910801877F8093E8
:1005D000080166CF805596448938934110F482E033
:1005E000E8CF809105029091060288599A43813A9A
:1005F0009F4018F4C0930002DECF10920002DBCFC0
:10060000823049F4809108018863809308018091C9
:1006100008018F7EDCCF833049F480910801886324
:1006200080930801809108018F7DD1CF80910801CE
:100630008863CDCFAA1BBB1B51E107C0AA1FBB1FFC
:10064000A617B70710F0A61BB70B881F991F5A955E
:10065000A9F780959095BC01CD010895F894FFCF3E
:00000001FF
